S00E0000752D626F6F742E73726563C0
S31587800000B80000EA14F09FE514F09FE514F09FE5A9
S3158780001014F09FE514F09FE514F09FE514F09FE5B3
S3158780002060008087C00080872001808780018087E5
S31587800030E001808740028087A0028087EFBEADDEA1
S315878000402000900000F020E300F020E300F020E31A
S3158780005000F020E300F020E300F020E300F020E3C7
S3158780006028D01FE500E08DE500E04FE104E08DE5CF
S3158780007013D0A0E30DF069E10FE0A0E10EF0B0E1C7
S3158780008048D04DE2FF1F8DE850201FE50C0092E88F
S3158780009048008DE234508DE20E10A0E10F0085E88E
S315878000A00D00A0E1F60500FA00F020E300F020E3DA
S315878000B000F020E300F020E300F020E300F020E367
S315878000C088D01FE500E08DE500E04FE104E08DE50F
S315878000D013D0A0E30DF069E10FE0A0E10EF0B0E167
S315878000E048D04DE2FF1F8DE8B0201FE50C0092E8CF
S315878000F048008DE234508DE20E10A0E10F0085E82E
S315878001000D00A0E1E80500FA00F020E300F020E387
S3158780011000F020E300F020E300F020E300F020E306
S31587800120E8D01FE500E08DE500E04FE104E08DE54E
S3158780013013D0A0E30DF069E10FE0A0E10EF0B0E106
S3158780014048D04DE2FF1F8DE810211FE50C0092E80D
S3158780015048008DE234508DE20E10A0E10F0085E8CD
S315878001600D00A0E1DA0500FA00F020E300F020E335
S3158780017000F020E300F020E300F020E300F020E3A6
S3158780018048D11FE500E08DE500E04FE104E08DE58D
S3158780019013D0A0E30DF069E10FE0A0E10EF0B0E1A6
S315878001A048D04DE2FF1F8DE870211FE50C0092E84D
S315878001B048008DE234508DE20E10A0E10F0085E86D
S315878001C00D00A0E1CC0500FA00F020E300F020E3E3
S315878001D000F020E300F020E300F020E300F020E346
S315878001E0A8D11FE500E08DE500E04FE104E08DE5CD
S315878001F013D0A0E30DF069E10FE0A0E10EF0B0E146
S3158780020048D04DE2FF1F8DE8D0211FE50C0092E88C
S3158780021048008DE234508DE20E10A0E10F0085E80C
S315878002200D00A0E1BE0500FA00F020E300F020E390
S3158780023000F020E300F020E300F020E300F020E3E5
S3158780024008D21FE500E08DE500E04FE104E08DE50B
S3158780025013D0A0E30DF069E10FE0A0E10EF0B0E1E5
S3158780026048D04DE2FF1F8DE830221FE50C0092E8CB
S3158780027048008DE234508DE20E10A0E10F0085E8AC
S315878002800D00A0E1BA0500FA00F020E300F020E334
S3158780029000F020E300F020E300F020E300F020E385
S315878002A068D21FE500E08DE500E04FE104E08DE54B
S315878002B013D0A0E30DF069E10FE0A0E10EF0B0E185
S315878002C048D04DE2FF1F8DE890221FE50C0092E80B
S315878002D048008DE234508DE20E10A0E10F0085E84C
S315878002E00D00A0E1980500FA120000EA00000FE1F0
S315878002F01F1000E21A0031E31F00C013130080131A
S31587800300C00080E300F029E1100F11EE020AC0E3F6
S31587800310100F01EE84009FE5100F0CEE060000EBB0
S315878003201D0000EBD50200EB150F07EE9A0F07EE3F
S31587800330950F07EE1EFF2FE1EBFFFFEA0000A0E394
S31587800340170F08EE150F07EED50F07EE9A0F07EEF4
S31587800350950F07EE100F11EE020AC0E30700C0E380
S31587800360020080E3020B80E3010A80E3100F01EE2F
S315878003700E50A0E1101F10EE213AA0E10F3003E264
S315878003800F4001E20322A0E1022084E110009FE56D
S315878003900700C0E300D0A0E105F0A0E1A80200EA4B
S30D878003A00000808720FF910091
S315878003A8FEE70148704700BF030000800048704712
S315878003B80300008000487047030000800048704724
S315878003C80300008000487047030000800048704714
S315878003D80300008000487047030000802DE9FF4DA1
S315878003E80C46D1F8008034F0F1FD1F4AC24613685F
S315878003F84FF0000B002B32D0002C32D05768D2F8BA
S3158780040808E000220192019A974201D1174C1BE096
S31587800418D3E902018B4508BF82451BD3D3E906C238
S3158780042812034FEA0C352D1842EA1C524A41029527
S315878004380392DDE90256B34508BFAA450AD21B69E6
S31587800448181A40442060002434F0D4FD204604B02E
S31587800458BDE8F08D019A734401320192D3E7044C43
S31587800468F2E7044CF0E700BF280780870E000080F4
S31587800478030000800200008010B5044600202146CC
S31587800488E268206100F05AF8206110BD00487047FD
S315878004980300008000487047030000800048704743
S315878004A8030000800048704703000080F0B58C07FA
S315878004B80ED06AB1204C11F8013B013A83EA0003D2
S315878004C8DBB254F8233083EA102001D08B07F2D128
S315878004D80E4602F00303184C22F003025718B742D8
S315878004E811D1043A11446BB10333134CCA1C19448E
S315878004F812F8013F4340DBB254F823308A4283EAB5
S315878005081020F5D1F0BD56F8045B6840C5B254F81B
S31587800518255085EA1025E8B254F8200080EA152503
S31587800528E8B254F8200080EA1520C5B254F82550D9
S3158780053885EA1020D3E700BF8807808708B5C04338
S31587800548FFF7B4FFC04308BD0448054B10300364E2
S31587800558044B8361044BC361FFF78EBF2807808767
S31587800568A9038087AB038087B50380872DE9FF4DED
S3158780057806460C46334D344B9D4206D3334B1E6015
S3158780058804B0BDE8F04D00F0BBBBD9F83C10D5F870
S3158780059800A001F1F1410AEB01025CB12C4B9A422A
S315878005A802D334339A4220D92A4B9A421DD0043BA8
S315878005B89A421AD02B79172B11D1244B18685AF857
S315878005C80130301A034494B94AF8013002F143015D
S315878005D821F03F0122F03F0000F0C0FB05E01A4674
S315878005E81D4900231D4842F0FEFB0835C3E79B4615
S315878005F84FF0000CCDE902BCD4E904BCE0464FF045
S31587800608000C5F46C44508BFBB4215D3D4E906E0CC
S315878006184FEA003C4CEA1E5C4FEA0E3E1EEB07000B
S3158780062800904CEB08004FF0000C0190DDE90078CC
S31587800638E04508BF9F42C7D20749094842F0D3FB9E
S31587800648D3E700BFB0E1868750E2868754B6868728
S3158780065850078087C4068087E49A84876C06808754
S315878006688E06808725733A20556E6B6E6F776E20D8
S3158780067872656C6F636174696F6E20747970652033
S31587800688256C6C780A0025733A2052656C6F63618E
S3158780069874696F6E206174202570206973206F75E1
S315878006A874206F662072616E67652028256C782925
S315878006B80A00000000000000C0068087C006808781
S315878006C84942492053595354500002004800000034
S315878006D800000000000000001007808700042020A3
S315878006E800000000000000000000000000000000F5
S315878006F8000000000000000038078087000000009F
S31587800708000000000000000044006100730020009C
S3158780071855002D0042006F006F00740000000000AE
S3158780072800000000000000000000000000000000B4
S3158780073852554E5453455256500002005000000079
S31587800748000000000000000095A8838781A883871A
S31587800758BD038087BD038087E1A88387E503808774
S31587800768B5AE838725B08387C9B18387BD038087DD
S3158780077839A88387D5038087DD038087AD048087FB
S3158780078800000000963007772C610EEEBA510999DA
S3158780079819C46D078FF46A7035A563E9A395649E36
S315878007A83288DB0EA4B8DC791EE9D5E088D9D2975A
S315878007B82B4CB609BD7CB17E072DB8E7911DBF90B6
S315878007C86410B71DF220B06A4871B9F3DE41BE84DA
S315878007D87DD4DA1AEBE4DD6D51B5D4F4C785D38336
S315878007E856986C13C0A86B647AF962FDECC9658ADA
S315878007F84F5C0114D96C0663633D0FFAF50D088D36
S31587800808C8206E3B5E10694CE44160D5727167A2D9
S31587800818D1E4033C47D4044BFD850DD26BB50AA535
S31587800828FAA8B5356C98B242D6C9BBDB40F9BCAC59
S31587800838E36CD832755CDF45CF0DD6DC593DD1ABB5
S31587800848AC30D9263A00DE518051D7C81661D0BFD9
S31587800858B5F4B42123C4B3569995BACF0FA5BDB835
S315878008689EB802280888055FB2D90CC624E90BB1D9
S31587800878877C6F2F114C6858AB1D61C13D2D66B635
S315878008889041DC760671DB01BC20D2982A10D5EF99
S315878008988985B1711FB5B606A5E4BF9F33D4B8E8F5
S315878008A8A2C9077834F9000F8EA8099618980EE199
S315878008B8BB0D6A7F2D3D6D08976C6491015C63E6F5
S315878008C8F4516B6B62616C1CD83065854E0062F219
S315878008D8ED95066C7BA5011BC1F4088257C40FF575
S315878008E8C6D9B06550E9B712EAB8BE8B7C88B9FC99
S315878008F8DF1DDD62492DDA15F37CD38C654CD4FBF5
S315878009085861B24DCE51B53A7400BCA3E230BBD498
S3158780091841A5DF4AD795D83D6DC4D1A4FBF4D6D3F4
S315878009286AE96943FCD96E34468867ADD0B860DA98
S31587800938732D0444E51D03335F4C0AAAC97C0DDDF4
S315878009483C710550AA41022710100BBE86200CC918
S3158780095825B56857B3856F2009D466B99FE461CE74
S315878009680EF9DE5E98C9D9292298D0B0B4A8D7C798
S31587800978173DB359810DB42E3B5CBDB7AD6CBAC0F4
S315878009882083B8EDB6B3BF9A0CE2B6039AD2B17410
S315878009983947D5EAAF77D29D1526DB048316DC736C
S315878009A8120B63E3843B64943E6A6D0DA85A6A7A10
S315878009B80BCF0EE49DFF099327AE000AB19E077D6C
S315878009C844930FF0D2A3088768F2011EFEC2066990
S315878009D85D5762F7CB67658071366C19E7066B6EEC
S315878009E8761BD4FEE02BD3895A7ADA10CC4ADD6710
S315878009F86FDFB9F9F9EFBE8E43BEB717D58EB0606C
S31587800A08E8A3D6D67E93D1A1C4C2D83852F2DF4F0F
S31587800A18F167BBD16757BCA6DD06B53F4B36B2486B
S31587800A28DA2B0DD84C1B0AAFF64A0336607A04410F
S31587800A38C3EF60DF55DF67A8EF8E6E3179BE69466B
S31587800A488CB361CB1A8366BCA0D26F2536E268528F
S31587800A5895770CCC03470BBBB91602222F260555EB
S31587800A68BE3BBAC5280BBDB2925AB42B046AB35C0F
S31587800A78A7FFD7C231CFD0B58B9ED92C1DAEDE5B6B
S31587800A88B0C2649B26F263EC9CA36A750A936D024F
S31587800A98A906099C3F360EEB8567077213570005AB
S31587800AA8824ABF95147AB8E2AE2BB17B381BB60CCF
S31587800AB89B8ED2920DBED5E5B7EFDC7C21DFDB0B2B
S31587800AC8D4D2D38642E2D4F1F8B3DD686E83DA1F4F
S31587800AD8CD16BE815B26B9F6E177B06F7747B718AB
S31587800AE8E65A0888706A0FFFCA3B06665C0B01114F
S31587800AF8FF9E658F69AE62F8D3FF6B6145CF6C16AB
S31587800B0878E20AA0EED20DD75483044EC2B303394E
S31587800B18612667A7F71660D04D476949DB776E3EAA
S31587800B284A6AD1AEDC5AD6D9660BDF40F03BD837CE
S31587800B3853AEBCA9C59EBBDE7FCFB247E9FFB5302A
S31587800B481CF2BDBD8AC2BACA3093B353A6A3B4244E
S31587800B580536D0BA9306D7CD2957DE54BF67D923AA
S31587800B682E7A66B3B84A61C4021B685D942B6F2A4E
S31587800B7837BE0BB4A18E0CC31BDF055A8DEF022DAA
S30D87800B88880B8087880B808724
S31587800B90FFFFFFFFFFFFFFFFFFFFFFFFFFFFFFFF58
S31587800BA05FF07FF5300F30EEA03BA0E10E3013E289
S31587800BB01C00000A00A0A0E3AA208AE03012A0E1E8
S31587800BC0071001E2020051E3130000BA10AF40EE2E
S31587800BD06FF07FF5101F30EE072001E2042082E256
S31587800BE0FF4300E3A14114E0145F6FE1FF7F07E3D2
S31587800BF0A17617E00790A0E11465A0E106B08AE1A7
S31587800C001962A0E106B08BE15EBF07EE019059E2DB
S31587800C10F8FFFFAA014054E2F5FFFFAA02A08AE205
S31587800C200A0053E1E3FFFFCA00A0A0E310AF40EEBE
S31587800C304EF07FF56FF07FF51EFF2FE1F04E2DE9A1
S31587800C40D6FFFFEBF04EBDE81EFF2FE15FF07FF505
S31587800C50300F30EEA03BA0E10E3013E21C00000A75
S31587800C6000A0A0E3AA208AE03012A0E1071001E263
S31587800C70020051E3130000BA10AF40EE6FF07FF5A4
S31587800C80101F30EE072001E2042082E2FF4300E353
S31587800C90A14114E0145F6FE1FF7F07E3A17617E038
S31587800CA00790A0E11465A0E106B08AE11962A0E108
S31587800CB006B08BE156BF07EE019059E2F8FFFFAA8F
S31587800CC0014054E2F5FFFFAA02A08AE20A0053E1B7
S31587800CD0E3FFFFCA00A0A0E310AF40EE4EF07FF59A
S31587800CE06FF07FF51EFF2FE1F04E2DE9D6FFFFEBE4
S31587800CF0F04EBDE81EFF2FE1100F11EE0200C0E314
S31587800D00100F01EE1EFF2FE1002307EE153F07EE3A
S31587800D10D53FBFF34F8FBFF36F8F7047704770474D
S31587800D20704708B5FFF78AEFBDE80840FFF7F8BF39
S31587800D30704708B5FFF7D8EFBDE80840FFF7F8BFDB
S31587800D4008B5FFF7EBFFFFF7F4FF002308EE173FA1
S31587800D5008EE163F08EE153FBFF34F8FBFF36F8FB1
S31587800D6008BD704738B504460D4600F02FFE30EE35
S31587800D70103F012203F0070304339A4053422340EE
S31587800D809D4207D8BFF34F8F29462046BDE8384016
S31587800D90FFF7E7BF07EE3E3F1344F1E708B5FFF756
S31587800DA0E1FF002308EE173F08EE163F08EE153F52
S31587800DB0BFF34F8FBFF36F8F08BD704770B50446FB
S31587800DC00D4600F003FE30EE106F2946204600F070
S31587800DD0FDFD40B1012306F00706043603FA06F6C1
S31587800DE023469D4207D8BFF34F8F29462046BDE8C5
S31587800DF07040FFF7E2BF07EE363F3344F1E770472F
S31587800E0010B5044600F073FCE3070DD500F093FE1A
S31587800E10FFF785FFFFF78DFF00F04DFEFFF774FF25
S31587800E20FFF7EDFF002010BD00F045FEFFF76CFF52
S31587800E30FFF777FFFFF768FF00F034FEF0E70320C0
S31587800E40FFF7DEBF18D09FE507D0CDE3E0D04DE230
S31587800E5007D0CDE30D90A0E100502DE9000800FA78
S31587800E600090BDE820FF9100000000000000000090
S31587800E700000000000000000000000000000000065
S31587800E8078009FE50700C0E300D0A0E1652F00FAD0
S31587800E9000D0A0E10090A0E1652F00FA0000A0E3D2
S31587800EA0BE3500FA4C0099E50700C0E300D0A0E183
S31587800EB0009099E5E09049E20CE08FE2500099E551
S31587800EC000E08EE03C0099E5030100EAFF0000EB35
S31587800ED014FDFFEB28009FE528309FE50010A0E3EF
S31587800EE0002053E00D0000FA893500FB893500FA2A
S31587800EF00900A0E13C1099E50CE09FE51EFF2FE1F4
S31587800F0020FF910050E28687749788876DE7808770
S31587800F1000000000000000000000000000000000C4
S31587800F2010F0030384463DD141EA012141EA01411C
S31587800F300B46102A1FDB2DE9004188468E46403AAC
S31587800F40A1BFACE80A41ACE80A41ACE80A41ACE803
S31587800F500A41F4DC08BFBDE8008112F0200F1CBF70
S31587800F60ACE80A41ACE80A4112F0100F18BFACE82A
S31587800F700A41BDE8004112F0080F18BFACE80A00A5
S31587800F8012F0040F18BF4CF8041B12F0020F1CBF17
S31587800F900CF8011B0CF8011B12F0010F18BF0CF817
S31587800FA0011B7047043AF0DB022BB8BF0CF8011B94
S31587800FB0D8BF0CF8011B0CF8011B1A44B4E700BF95
S31587800FC0884208BF70472DE91140043A4BDB10F001
S31587800FD0030C91F800F05AD111F0030C71D11C3AA9
S31587800FE02DE9E00114DB91F800F0603A91F81CF066
S31587800FF005DB91F83CF091F85CF091F87CF0B1E8EC
S31587801000F851203AA0E8F851F7DA12F1600FF6DA4C
S3158780101012F01C0CCCF1200C18BFE74421E0AFF30B
S31587801020008051F8043B51F8044B51F8045B51F822
S31587801030046B51F8047B51F8048B51F804EBE74431
S3158780104000BFAFF3008040F8043B40F8044B40F87C
S31587801050045B40F8046B40F8047B40F8048B40F8C7
S3158780106004EBBDE8E001D20718BF11F8013B24BF26
S3158780107011F8014B11F801CB18BF00F8013B24BF4B
S3158780108000F8014B00F801CBBDE811407047CCF1E1
S31587801090040CBCF1020FC8BF11F8013BA8BF11F839
S315878010A0014B11F801EBC8BF00F8013BA8BF00F8D8
S315878010B0014BB2EB0C0200F801EBD4DB11F0030C89
S315878010C08DD021F00301BCF1020F51F804EB4ED08D
S315878010D000F39A801C3A39DB2DE9E00391F800F01A
S315878010E0603A91F81CF005DB91F83CF091F85CF05A
S315878010F091F87CF0F0C94FEA1E23203AB1E8005375
S3158780110043EA04634FEA142444EA05644FEA1525C3
S3158780111045EA06654FEA162646EA07664FEA17279F
S3158780112047EA08674FEA182848EA09684FEA19297B
S3158780113049EA0C694FEA1C2C4CEA0E6CA0E8F81336
S31587801140D6DA12F1600FD5DABDE8E00312F01C0C0F
S315878011500AD04FEA1E2351F804EBBCF1040C43EA0C
S315878011600E6340F8043BF4DCA1F103017BE71C3A6C
S3158780117039DB2DE9E00391F800F0603A91F81CF0AD
S3158780118005DB91F83CF091F85CF091F87CF0F0C93A
S315878011904FEA1E43203AB1E8005343EA04434FEAB5
S315878011A0144444EA05444FEA154545EA06454FEA1D
S315878011B0164646EA07464FEA174747EA08474FEAF9
S315878011C0184848EA09484FEA194949EA0C494FEAD3
S315878011D01C4C4CEA0E4CA0E8F813D6DA12F1600F55
S315878011E0D5DABDE8E00312F01C0C0AD04FEA1E431D
S315878011F051F804EBBCF1040C43EA0E4340F8043BF8
S31587801200F4DCA1F102012EE71C3A39DB2DE9E003F4
S3158780121091F800F0603A91F81CF005DB91F83CF084
S3158780122091F85CF091F87CF0F0C94FEA1E63203A1A
S31587801230B1E8005343EA04234FEA146444EA052459
S315878012404FEA156545EA06254FEA166646EA072672
S315878012504FEA176747EA08274FEA186848EA09284E
S315878012604FEA196949EA0C294FEA1C6C4CEA0E2C1D
S31587801270A0E8F813D6DA12F1600FD5DABDE8E00375
S3158780128012F01C0C0AD04FEA1E6351F804EBBCF1AE
S31587801290040C43EA0E2340F8043BF4DCA1F10101F8
S315878012A0E1E600BF0DC0A0E1F05F80E80000A0E323
S315878012B01EFF2FE1F05F90E80CD0A0E10100A0E14E
S315878012C0000050E30000001A0100A0E31EFF2FE113
S315878012D03C0099E5100F0CEE1EFF2FE14C109FE521
S315878012E0014050E01000000A44209FE5000CB1E8D9
S315878012F0000CA0E8020051E1FBFFFF3A34209FE50E
S3158780130034309FE50300B2E8FF1001E2170051E30E
S315878013100300001A040080E0001090E5041081E045
S31587801320001080E5030052E1F5FFFF3A1EFF2FE1AB
S315878013300000808750E2868750E2868748BA87870B
S315878013401FB50023D9F80020916CD26CCDE90013A4
S31587801350CDE902236946012302AA0EF0E5F905B095
S315878013605DF804FB10B50424074ADFF820C01368AC
S31587801370C3E9004C13689860081A1968D86003EB2C
S315878013808103136010BD00BF50E2868705004254F3
S31587801390D9F800206946D26CA1F580518AB1D9F8EF
S315878013A00020926C8A420CD8D9F80020D9F8003070
S315878013B0926CDB6C1A44531E994202D8521A3FF0BC
S315878013C08CBF70477047000073B5D9F800300546E3
S315878013D01B6C066E1B480C4601930BF067FB48B166
S315878013E0102101AA41F0B4FD002824DB0199164813
S315878013F041F0FDFC0F200BF027FCAD200BF024FC81
S315878014001FF0EAFDFFF7DEFF104B114904F40074E5
S31587801410002C08BF19460F4841F0E9FC4FF4C0609D
S3158780142016F0ECFFFFF70BFD2B6F33B1EA6E14B91D
S3158780143020460199B04702B070BDD9F800305A6C02
S31587801440F5E700BF60AC848767AC8487AAE1848729
S3158780145049AC84878CAC8487704770472DE9F7457C
S3158780146005464C480BF022FB2B6F064653B1284620
S3158780147012F0FBF9002800F08780474841F0B7FCD7
S315878014803FF006FE0521D9F80020DFF82081526CCF
S31587801490DFF81CC1C8F80020C2E9001CD8F80040D4
S315878014A06846D4F800A0A36004EB8A07E3602361CB
S315878014B0C8F8007001F098FC384B7B60042344F8A9
S315878014C02A30009BBB60019BFB6007F11003C8F83D
S315878014D000304B461B68EEB13046064610F8013B16
S315878014E0202BFAD0B3B12E4B30467B6140F040FC3F
S315878014F0D8F800300D3080081860D8F8000031465B
S31587801500083040F0D5FBD8F800301A6803EB8203A1
S31587801510C8F8003001F000FA0322D8F80030214C51
S31587801520214EC3E90024D8F800301968986003EB08
S315878015308100C8F80000D9F800204660042043F867
S315878015402100D8F80030916CD960D26C9A601A687D
S31587801550686F03EB8203C8F8003030B1A96F21B179
S315878015604B461B68FFF7FEFE04E0686E10B1A96ED6
S315878015700029F5D10D48FFF76FFF4B4600221B6880
S31587801580D8F800305A601A602846FFF766FF03B09E
S31587801590BDE8F085E3CD8487A5AC84870600415472
S315878015A009004154070041540200415450E286871E
S315878015B001004154F8B510F0C00504461E4618D17F
S315878015C010F4807704D01846FFF748FF2846F8BD81
S315878015D010F4C06505D001461846FFF7F5FE3D46EF
S315878015E0F4E71846FFF73AFF21463046FFF7ECFEC9
S315878015F0ECE74FF0FF35E9E710B50446C06E58B182
S3158780160007493EF07FFA002806DDE06EFFF798FEF1
S3158780161010B1044810F051FEBDE81040FFF70FBCAB
S31587801620C5AC8487CDAC8487036EC06E18470000AF
S3158780163010B590F8254090F8243043EA042390F833
S31587801640264043EA044390F8274043EA0463184CCC
S31587801650A34207D0174CA34204D0174810F02DFE1B
S31587801660012010BD90F8294090F8283043EA04235A
S3158780167090F82A4043EA044390F82B4043EA046370
S315878016800B6090F82D4090F82C3043EA042390F82D
S315878016902E4043EA044390F82F4043EA046313605D
S315878016A00A680146054841F0A2FB0020D9E700BFBA
S315878016B018286F01626F7800B7AF8487CBAF84872E
S315878016C0D9F84C200020C9F84820D9F84C20103A00
S315878016D0C9F84C2070470000D9F84830024A083349
S315878016E000201360704700BF4000808770470020C6
S315878016F07047000008B5014840F0FCFDF9A484874F
S315878017002DE9F0450446A3B080224D4902A8FFF70C
S3158780171057FCA26BE16B4B48256C41F068FBD9F887
S31587801720042005F07046D2070AD5D9F85010A06BE9
S31587801730D9F85020E36B821A591A434841F057FBF0
S31587801740E36A226B616B414841F051FB236A626A87
S31587801750A16A3F4841F04BFB23693E480093636902
S31587801760A269E16941F043FB23683B480093E168BE
S315878017706368A26841F03BFB002EB4BF4E216E2181
S3158780178015F0804F14BF5A227A2215F0005F14BF56
S315878017904323632315F0805F14BF562076200090FD
S315878017A02E4841F024FB236C2D4A2E4813F0800F58
S315878017B014BF0146114613F0400F18BF024622AD6B
S315878017C003F01F0005EB8000274D13F0200F274B72
S315878017D008BF2B46009350F8803C254841F007FB8D
S315878017E0276CE56B17F0200716D1082625F00305A9
S315878017F015E035F81420002C0CBF404650463146FC
S3158780180041F0F5FA013413E0022CF2D1194823B05E
S31587801810BDE8F04541F0EBBA042625F00105164868
S3158780182041F0E5FA6FF00304DFF85080DFF850A0C7
S31587801830002FE9D1002CE9DC55F82420DBE700BFAF
S31587801840B0688487944685878E468587B64685879A
S31587801850DA468587FE4685872E4785875E478587CD
S315878018604543858701C78487AAE184877B468587A1
S315878018706E478587863785878D478587804685871F
S3158780188088468587044608B533F068FD064841F063
S31587801890AEFAE36B2046043BE363FFF731FFE06BE9
S315878018A038F0BEF9FFF726FF84EC8487044608B5AF
S315878018B033F054FD064841F09AFAE36B2046043BA1
S315878018C0E363FFF71DFFE06B38F0AAF9FFF712FF96
S315878018D084EA8487044608B533F040FD064841F09C
S315878018E086FAE36B2046083BE363FFF709FFE06BE5
S315878018F038F096F9FFF7FEFE62E98487044608B5D5
S3158780190033F02CFD064841F072FAE36B2046083B9C
S31587801910E363FFF7F5FEE06B38F082F9FFF7EAFEBF
S315878019209ACE8487044608B533F018FD064841F079
S315878019305EFAE36B2046083BE363FFF7E1FEE06BE5
S3158780194038F06EF9FFF7D6FE23E98487044608B513
S3158780195033F004FD064841F04AFAE36B2046083B9C
S31587801960E363FFF7CDFEE06B38F05AF9FFF7C2FEE7
S3158780197035D78487044608B533F0F0FC064841F0AE
S3158780198036FAE36B2046083BE363FFF7B9FEE06BE5
S3158780199038F046F9FFF7AEFE3AD7848708B5084808
S315878019A010F08BFC4CF2503040F032FBFFF79FFEF5
S315878019B001F057FA00201FF0AFFC002008BD00BF5A
S315878019C03BEA84870144FFF7CDB9000008B540EA32
S315878019D001039B060A4605D00146034841F007FA6C
S315878019E0002008BD0120FCE724B0848710B511EE5E
S315878019F0103F042815D15B0712D511EE104FFFF7DC
S31587801A0090F924F0040301EE103FBFF36F8FFFF741
S31587801A1088F9052024EA000401EE104FBFF36F8F03
S31587801A2010BD11EE104FF5E77047D9F8D03041EAEF
S31587801A30005141F4406143F82010704770B5040D1A
S31587801A4000F57F23204603F6FF730B44D9F8D060D1
S31587801A501D0DA8420DD306EB850506EB840005F19F
S31587801A603F01BDE8704021F03F0120F03F00FFF73E
S31587801A7095B91146FFF7D9FF0130EAE708B5D9F856
S31587801A80002002EBC002906C000DD36C916C1B0D0D
S31587801A9003EB1153834200D808BD1E21FFF7C5FF8C
S31587801AA00130F2E711EE103F43F4805301EE103F89
S31587801AB0BFF36F8F70474FF48050FFF797BF11EE54
S31587801AC0100FC0F30030704710B511EE104F14F029
S31587801AD0010427D1FFF734F9204612210134FFF715
S31587801AE0A4FFB4F5805FF7D10020FFF7C7FF0023F7
S31587801AF002EE503FD9F8D03023F47F5323F03F034B
S31587801B0043F0590302EE103F4FF0FF3303EE103F49
S31587801B10FFF78AFF11EE103F43F0010301EE103F76
S31587801B20BFF36F8F11EE103F43F0040301EE103F32
S31587801B30BFF36F8F10BD0420FFF758BF11EE100FCC
S31587801B40C0F38000704700002DE9F34D4FEA111BE3
S31587801B50060E0BF0200346EA012605460C46C0F39F
S31587801B600B08C1F3051A8F0A019300F0E9FDC0F3CC
S31587801B7008306528C6F30B0623D1019B73BB00F01B
S31587801B80DFFD000B00F0F00070282DD1214B1B68FC
S31587801B9043F808A01EB11F4B240F1B689C51BB03BB
S31587801BA007D4C5F30B3525B11A4BC7F311071B68C5
S31587801BB05F51019B13B1174B174A1A6002B0BDE874
S31587801BC0F08D00F0BDFDC0F308306B28D5D000F0CE
S31587801BD0B7FDC0F308306728D1D1CEE70D4B0F4AC2
S31587801BE00BF01F0A1A60CAE700F0AAFDC0F3083017
S31587801BF06528CBD000F0A4FDC0F308306B28C5D00C
S31587801C0000F09EFDC0F308306728BFD0B8F1000F7B
S31587801C10BCD1BFE728D0858700000E020000290245
S31587801C2070B504460D460026AE4200D170BDF4E8F5
S31587801C3002010136FFF788FFF6E70000054B1A6831
S31587801C40013204D1044A9268BFF35F8F1A6018689D
S31587801C50704700BF2CD0858700800D0208B5FFF7B7
S31587801C60EDFF20282AD014D8082829D008D801281B
S31587801C7028D0184A184B042814BF1046184608BD22
S31587801C80102821D0134A154B112814BF10461846A1
S31587801C90F5E7B0F5807F19D008D8402818D00D4A47
S31587801CA00F4B802814BF10461846E8E7094A0D4B24
S31587801CB0B0F5803F14BF10461846E0E70A48DEE74E
S31587801CC00A48DCE70548DAE70948D8E70948D6E7C6
S31587801CD00948D4E759198587771985876719858745
S31587801CE08D198587A11985876B1985879319858727
S31587801CF09C1985877B1985878519858710B50446BD
S31587801D00FFF7ACFF014620463FF0D2FF034B1A68A8
S31587801D10BFF35F8F024B9A6010BD00BF2CD085873B
S31587801D2000800D028F2800F28D80502803D8734853
S31587801D3070477348704751383E28F8D801A353F8BF
S31587801D4020F000BFED1E80872F1D8087F11E80873C
S31587801D502F1D80872F1D80872F1D80872F1D80872A
S31587801D602F1D80872F1D80872F1D80872F1D80871A
S31587801D702F1D80872F1D80872F1D80872F1D80870A
S31587801D80D51E8087CD1E8087DD1E8087C51E80876E
S31587801D90E11E8087E51E8087D11E8087D91E808732
S31587801DA0C11E8087BD1E8087C91E8087E91E808762
S31587801DB02F1D80872F1D80872F1D80872F1D8087CA
S31587801DC02F1D8087B51E8087B91E80872F1D8087A8
S31587801DD02F1D80872F1D80872F1D80872F1D8087AA
S31587801DE02F1D80872F1D80872F1D80872F1D80879A
S31587801DF02F1D80872F1D80872F1D80872F1D80878A
S31587801E002F1D80872F1D8087A91E8087B11E80877B
S31587801E10AD1E8087911E8087951E8087991E8087B5
S31587801E209D1E8087A11E8087A51E8087411E8087ED
S31587801E30F91E8087811E8087851E8087891E808779
S31587801E40304870476FF4C073184406283FF66FAFE3
S31587801E5006283FF66CAF01A353F820F08D1E808746
S31587801E60F51E80872F1D80877D1E80872F1D808703
S31587801E70791E8087331D808723487047234870471C
S31587801E8023487047234870472348704723487047BD
S31587801E9023487047234870472348704723487047AD
S31587801EA0234870472348704723487047234870479D
S31587801EB0234870472348704723487047234870478D
S31587801EC0234870472348704723487047234870477D
S31587801ED0234870472348704723487047234870476D
S31587801EE0234870472348704723487047234870475D
S31587801EF02348704723487047234870472D1885871E
S31587801F004A1885870E198587371885874318858761
S31587801F10621885876E1885877E1885878E18858748
S31587801F209E188587A3188587A9188587AE1885877C
S31587801F30B4188587B9188587BF188587C318858715
S31587801F40CB188587CF188587D2188587D5188587B3
S31587801F50D9188587DD188587E0188587E31885876B
S31587801F60E7188587ED188587F1188587F618858719
S31587801F70FA188587FE1885870319858708198587BF
S31587801F800B198587301885875618858730B585B02C
S31587801F9000F0D6FB0246C0F30830FFF7C3FE014642
S31587801FA002F00F032B48C2F3031240F020FF00F0A4
S31587801FB015FC294D0446B8B9002001F01BFDA0FB0E
S31587801FC005012648890C40F012FF254810F075F9DF
S31587801FD003A902A800F07CFC022837D0032815D0F5
S31587801FE0012835D11F4812E0002001F003FDA04269
S31587801FF0E2D0002001F0FEFCA0FB0523A4FB0501AF
S315878020009A0C890C184840F0F2FEDEE7174810F0E4
S3158780201054F9DDE90212164840F0E9FE6A46002146
S315878020205A2016F0B5FB40B9009801A91FF082F9AE
S3158780203018B901990F4840F0DAFEFFF70FFE01467F
S315878020400D4840F0D4FE002005B030BD0B48DEE752
S315878020500B48DCE70B3A858783DE1B43223A8587E5
S315878020604A3A85878E3A85872D3A8587523A8587F4
S31587802070B53A8587C23A8587CB3A8587703A858789
S31587802080973A858710B5054B5C6901F033F9C4F3B8
S315878020908221013144F04AE910BD00BF00400C021D
S315878020A0704710B50B204C4601F0A4FCC4F8B000ED
S315878020B0002010BD10B5114A1368BFF35F8F9169F1
S315878020C0BFF35F8F0E4CC3F3026202F10C00C3F33A
S315878020D00252A25C0244C3F30140C3F3807318445F
S315878020E0C1F340130749CB5C13441844202816BF95
S315878020F001234FF0704003FA00F010BD00001B02E9
S315878021003BB284870CA5848770B505460E461446F0
S31587802110013C03D1B4FA84F0400970BD2B68BFF3C4
S315878021205F8F36EA0303F5D001203FF071FFEFE733
S3158780213070B505460E461446013C03D1B4FA84F041
S31587802140400970BD2B68BFF35F8F3342F6D001207D
S315878021503FF05EFFF0E7000070B50446BFF35F8F00
S315878021604FF00045164A29468560FFF7E1FF08B19B
S31587802170012070BDBFF35F8F4FF08046A660BFF3A7
S315878021805F8F0F4A314620466560FFF7BDFF00287F
S31587802190EED1BFF35F8F0A4A29462046A560FFF7AF
S315878021A0C7FF0028E4D1BFF35F8F054A31462046B3
S315878021B0A660FFF7BDFF003818BF0120D9E700BFAB
S315878021C040420F00D9F800206946926CA1F580417C
S315878021D08A420BD8D9F80020D9F80030926CDB6C0C
S315878021E01A44914202D2521A3FF077B8704700005C
S315878021F044F22403054AD358DB0705D5BFF35F8F9F
S315878022004FF07042024B1A60704700BF00000E0283
S3158780221008011D0208B5FEF78CFD10EE103FC3F34B
S315878022200313072B0BD111EE303F5A0607D443F0A1
S31587802230400301EE303FBFF34F8FBFF36F8FFFF7BA
S3158780224043FC1E2200200649FFF7F8FBBDE80840BD
S315878022501E224FF400314FF41000FFF7EFBB00BF0B
S31587802260FFFF0F0008B5BFF35F8F4FF077332F4996
S315878022700B60BFF35F8F4B60BFF35F8F2C4A136012
S31587802280BFF35F8F5360BFF35F8F00230B64BFF30A
S315878022905F8F4B64BFF35F8F8B64BFF35F8FCB6436
S315878022A0BFF35F8F0B65BFF35F8F1364BFF35F8F5A
S315878022B05364BFF35F8F9364BFF35F8FD364BFF33A
S315878022C05F8F136500F03CFAC0F30830652819D113
S315878022D0BFF35F8F4FF07732164B1A60BFF35F8FEE
S315878022E05A60BFF35F8F00221A64BFF35F8F5A6489
S315878022F0BFF35F8F9A64BFF35F8FDA64BFF35F8FB5
S315878023001A6508BD00F01CFAC0F308306B28DFD049
S3158780231000F016FAC0F308306228D9D000F010FA98
S31587802320000B00F0F0007028EBD1D1E700C00702E0
S3158780233000C0170200C0270210B500F001FAC0F36B
S31587802340083064280BD000F0FBF9C0F30830652885
S3158780235005D000F0F5F9C0F308306B2815D1194CF4
S31587802360BFF35F8F0023184A1381BFF35F8F4FF0C8
S315878023700372138100F0E4F9C0F30830622806D12E
S31587802380BFF35F8F0023238110BD104CE8E700F0F1
S31587802390D7F9C0F308306428F2D000F0D1F9C0F3BA
S315878023A008306528ECD000F0CBF9C0F308306B286D
S315878023B0E6D000F0C5F9000B00F0F0007028E3D175
S315878023C0DEE700BF00401E0200C00B0200802802A5
S315878023D0044A1368BFF35F8F23F00103BFF35F8FD0
S315878023E01360704700800D02BFF35F8F074B1864B9
S315878023F05A6CBFF35F8F28B142F08052BFF35F8FED
S315878024005A64704722F08052F8E700BF00800D0239
S3158780241070B50C46064600F093F9030B03F0F0037C
S31587802420602B0CBF4FF4C4654FF4C86500F088F9FC
S31587802430030B03F0F00305F10675702B05F57035F0
S3158780244013D1012E46D12B6ABFF35F8F1A0E227066
S315878024501A0C62701A0AA270E3702B69BFF35F8FBA
S315878024601A0E22711B0C637170BD00F069F9C0F377
S3158780247008306228E5D000F063F9C0F30830642815
S31587802480DFD000F05DF9C0F308306528D9D000F039
S3158780249057F9C0F308306B28D3D000F051F9C0F3D1
S315878024A00830B0F5C17FCCD000F04AF940F2871367
S315878024B0C0F308309842C4D000F042F9C0F30830A0
S315878024C0B0F5C37FBDD000F03BF9C0F30830B0F5D7
S315878024D0C27FB6D02B69BFF35F8F1A0A227063706B
S315878024E02B68BFF35F8F1A0EA2701A0CE2701A0AD6
S315878024F02271B8E70C4B0EEE103FBFF35F8F0B4A06
S3158780250013621368BFF35F8F23F4407343F4817339
S3158780251043F00103BFF35F8F00201360C9F8BC00C7
S31587802520C9F8B800704700BF00127A0000C01D0244
S3158780253053EC0E2FC9F8BC2010461946C9F8B83017
S3158780254070472DE9F3480446FFF7F2FF1EEE102FFA
S315878025504FF47A75A0FB05BC05FB01C300271E4691
S315878025609C4656EA07031146CDE900BC08D15846F2
S3158780257043F0DCEE00900098001B02B0BDE8F0883F
S3158780258068463EF0F7FCF6E72DE9F74C1EEE101FFE
S3158780259000231D4A1D4CE1FB0023A2FB0467002113
S315878025A038460027DFF868C0E4FB0301A2FB0C45A9
S315878025B010EB040A51EB050B3E4628BF01273C46A4
S315878025C000273546DA46BB4654EA05011CBF0024F8
S315878025D00125ECFB03ABFFF7ABFF14EB0A0245EB58
S315878025E00B05920C42EA85331B18009347EB010350
S315878025F00193FFF79DFFDDE90034A14208BF98422A
S31587802600F7D303B0BDE8F08C3F420F00DB34B6D7F3
S3158780261082DE1B431EEE100F704700002DE9F04DBA
S31587802620044600274FF07C0ADFF84CB00BF1080888
S315878026305BF8045B15B12868083558B9C345F7D167
S3158780264024B10B220B49601EFEF7BAFC07F10A00FC
S31587802650BDE8F08D3FF08CFB064644B1024655F8BF
S31587802660081C20463444FEF7ABFC04F801AB0136E0
S315878026703744E0E79FB3848754E28687012A2DE92A
S31587802680F04114461E4604DC4FF0FF342046BDE8F1
S31587802690F0811A4FD3F804803D683DB1286828B108
S315878026A041463FF03CFB20B30835F7E77D68002D30
S315878026B0EAD028680028E7D041463FF030FBC0B192
S315878026C00835F6E70E49B0683FF029FB04460028AF
S315878026D0DAD16868FFF788FE002CD7D06C68002C23
S315878026E0D4D000231A4619461846FFF757F900248F
S315878026F0CCE7032CE6D00124EBE700BF54E286873C
S31587802700B9C7848738B50B4C0546206918B110F050
S315878027102DF800232361084B084A00201D605A60E4
S31587802720FFF77CFF10F0D6F8054610B1FFF776FFE6
S31587802730256138BDB0C5868754E28687F47E8487CF
S31587802740244AD2F88002BFF35F8FC0F30743602B9A
S315878027503ED0D2F86002BFF35F8F4FF420035A686A
S31587802760BFF35F8FC0F30743612B02F003021ED14D
S31587802770002A08BF662310F47F4FC0F3072108D04D
S31587802780632B01D06A2B04D1012A14BF692368235E
S315878027900139632BC0B201D06A2B02D1052808BFC5
S315878027A00320013100EB011040EA03307047632B29
S315878027B003D1012A08BF6A23DDE7652BDBD106496A
S315878027C00968BFF35F8F11F0400F18BF6B23D2E77D
S315878027D00022D0E700800C021C800D0210B5344B96
S315878027E0D3F84044BFF35F8FFFF7AAFFC0F3083063
S315878027F06428C4F3014407D1012C01D12D4810BD2B
S31587802800022C51D00020FAE7FFF79AFFC0F30830F1
S31587802810652805D1012CF1D0022C27D12648EEE7F1
S31587802820FFF78EFFC0F308306B28F3D0022C3DD09C
S31587802830032C1FD0012CF1D1FFF782FFC0F308301C
S31587802840632811D0FFF77CFFC0F308306A280BD046
S31587802850FFF776FFC0F30830692805D0FFF770FF4A
S31587802860C0F308306828D9D11448C8E7032CC9D162
S315878028701348C4E7FFF764FFC0F30830632811D095
S31587802880FFF75EFFC0F308306A280BD0FFF758FF43
S31587802890C0F30830692805D0FFF752FFC0F30830A8
S315878028A0682803D10748AAE70748A8E70748A6E71D
S315878028B000C01B0200A4781F00F6342F007DC83223
S315878028C000E9A435008C8647001E7C2900C15D3BC4
S315878028D0104A0346D2F88004BFF35F8FC0F3811016
S315878028E03BB131B1032805D16FF027021A607D236A
S315878028F00B607047022804D16FF027021A6069231C
S31587802900F6E7012802D16FF01302F7E700221A60F3
S315878029105F23EDE700C01B0208B5FFF711FFC0F301
S315878029200733662B04D1C0F30B0040F4C22008BD61
S315878029306A2B04BFC0F30B0040F4C620F7E700007C
S31587802940F8B5254F06460C46D7F84051BFF35F8FBB
S31587802950FFF7F6FEC0F308306728394601D1002095
S31587802960F8BDB4F5357F30D940F2AA539C422ED82C
S315878029701A4BA4F52F72A2FB0323DB08D1F87021AB
S31587802980BFF35F8F22F07C52BFF35F8F022EC1F831
S3158780299070211ED81F24124A925D944004EA05004E
S315878029A0D0408342DBD025EA040503FA02F2154339
S315878029B0BFF35F8F181A0028B8BF4042C1F84051CD
S315878029C000EB40003FF024FBC9E70023D6E71F23AF
S315878029D0D4E76FF01500C3E700800C021F85EB51A3
S315878029E0A5988487D9F80400C00F704708B5084B27
S315878029F05B68BFF35F8FC3F38112FFF7F3FF20B95D
S31587802A00012A02D1C3F3C12008BD4FF0FF30FBE70F
S31587802A1000800D0210B5CE4B1B68BFF35F8FDC023B
S31587802A205FBF4A46536843F000435360FFF788FE8B
S31587802A30C0F3083060282BD0FFF782FEC0F30830BA
S31587802A40622825D0FFF77CFEC0F3083064281FD024
S31587802A50FFF776FEC0F30830652819D0FFF770FE3A
S31587802A60C0F308306B2813D0FFF76AFEC0F30830AF
S31587802A7067280DD0B74A1368BFF35F8FD80307D50A
S31587802A8023F48033BFF35F8F002013601EF044FCEE
S31587802A90FFF7E8FBB04B5C68BFF35F8FFFF750FEAD
S31587802AA0C0F30830622840F0098124F48034BFF36C
S31587802AB05F8FA94B5C6003F58043D3F85021BFF3C2
S31587802AC05F8F1106F9D5BFF35F8F0822C3F854212C
S31587802AD0FFF736FEC0F30830652840F015819F4B97
S31587802AE0D3F88034BFF35F8F1B0903F07003BFF37E
S31587802AF05F8F9B4AC2F85431FFF722FEC0F30830B6
S31587802B00642823D0FFF71CFEC0F3083065281DD0C4
S31587802B10FFF716FEC0F308306B2817D0002000F029
S31587802B2069FF904B984211D18B4C00F0E3FB636928
S31587802B30BFF35F8F8C4A23F4E053A0FB02010A0D13
S31587802B40013A43EA8223BFF35F8F6361FFF7F8FD1C
S31587802B50C0F3083064280BD1FFF7F2FDC0B2102886
S31587802B6000F0DA80BFF35F8F4BF6A0027F4B1A6047
S31587802B70FFF7E6FDC0F30830652840F0D9807C4AA8
S31587802B801368BFF35F8F43F00303BFF35F8F1360D1
S31587802B90FFF7D6FDC0F30830602808D16E4AD3691F
S31587802BA0BFF35F8F43F04003BFF35F8FD361FFF738
S31587802BB0C3FBFFF7C5FDC0F30830622808D16D4A8D
S31587802BC01368BFF35F8F43F04003BFF35F8F136054
S31587802BD0FFF7B6FDC0F30830602827D0FFF7B0FD32
S31587802BE0C0F30830642821D0FFF7AAFDC0F30830E8
S31587802BF065281BD0FFF7A4FDC0F308306B2815D056
S31587802C00FFF79EFDC0F3083067280FD0FFF798FD42
S31587802C10C0F30830622800F093804E4A1368BFF36A
S31587802C205F8F43F48023BFF35F8F1360FFF788FD41
S31587802C30C0F3083069283BD0FFF782FDC0F30830A0
S31587802C40682835D0FFF77CFDC0F3083064282FD0FD
S31587802C50FFF776FDC0F30830652829D0FFF770FD2A
S31587802C60C0F308306B2823D0FFF76AFDC0F308309E
S31587802C7067281DD0404A1368BFF35F8F43F00103EF
S31587802C80BFF35F8F13603D4B1A68BFF35F8F42F048
S31587802C900102BFF35F8F1A601A68BFF35F8FD2070F
S31587802CA0FAD4BFF35F8F4FF478522D4BC3F8482100
S31587802CB0FFF78EFBFFF79CFA002010BDFFF740FDDC
S31587802CC0C0F3083064283FF4F0AEFFF739FDC0F3D0
S31587802CD0083065283FF4E9AEFFF732FDC0F3083048
S31587802CE06B283FF4E2AEFFF72BFDC0F308306028F0
S31587802CF03FF4DBAEFFF724FDC0F3083067283FF447
S31587802D00D4AE24F44034D2E6FFF71AFDC0F30830F8
S31587802D106B287FF4F1AEE2E6194A1368BFF35F8FBB
S31587802D2023F4A05343F48063BFF35F8F13601FE759
S31587802D30FFF706FDC0F308306B287FF429AF1EE7BF
S31587802D40104A1368BFF35F8F43F080436BE700BFFA
S31587802D5000900C0204000E0200400C0200C01B0289
S31587802D6000800C02007B9A17239A08029C020E0227
S31587802D7000000B0224400C0260C20D0200C00D02C7
S31587802D8010000B0230400E027047000008B5FFF72F
S31587802D902DFE002806DABDE8084001220A2103486D
S31587802DA009F0EEBEBDE80840FFF7EEBF222A858789
S31587802DB00020704708B5FFF719FE002803DBBDE8BA
S31587802DC00840FFF7F5BF002008BD08B5FFF7B8FCB8
S31587802DD0C0F30830672804D040F297410120FFF777
S31587802DE0AFFD002008BD0000034BD3F81024026096
S31587802DF0D3F820344360704700C01B02114B1B6891
S31587802E00BFF35F8FC3F3C000C3F3C122C3F303133A
S31587802E100F2B13D8DFE803F0151214080B0B0D0D53
S31587802E201010101010101010C0F105007047901DFB
S31587802E30704702F10A0070470E207047122070474C
S31587802E400320704704800D020388BFF35F8F038852
S31587802E509BB2BFF35F8F43F00903BFF35F8F038016
S31587802E607047704708B5FFF76BFCC0F30830622858
S31587802E703FD0FFF765FCC0F30830642839D0FFF769
S31587802E805FFCC0F30830652833D0FFF759FCC0F361
S31587802E9008306B282DD0FFF753FCC0F3083067289E
S31587802EA027D01E4B9A69BFF35F8FC2F34153022B9C
S31587802EB0C2F3814223D0022A26D0012B1DD0012A34
S31587802EC01BD0032B164B01D0032A23D1BFF35F8FE9
S31587802ED04FF08031134AC2F8F410BFF35F8FC2F880
S31587802EE00431BFF35F8FC2F8F810BFF35F8FC2F8E4
S31587802EF0083108BD4FF08023E6E7094BE6E7012ACC
S31587802F00F8D14FF08023E1E7012BFAD0032BF8D055
S31587802F104FF0802343F40003D8E700BF00400C02BC
S31587802F208080008000800C0210B5054B1B685C6929
S31587802F30FFF7A8F8C4F30121013143F0F8E910BD02
S31587802F4030D0858770B5BFF35F8F44F2A803294C4D
S31587802F50294E2568022AEE5030D0042A33D0012A9A
S31587802F6034D100F07F0040F48010BFF35F8F44F246
S31587802F70A4032268D050BFF35F8F44F2B0032268E0
S31587802F80D150BFF35F8F44F2C00322681B4900206C
S31587802F90D150FFF7D6FA44F2A006054623689B5997
S31587802FA0BFF35F8F002B17DABFF35F8F44F2A403DB
S31587802FB04FF4005122680020D1500CE000F07F004A
S31587802FC040F40020D1E700F07F00CEE70C480FF071
S31587802FD074F96FF0150070BD0020FFF7B2FA05F11E
S31587802FE00A039842DAD307480FF067F96FF03D00F6
S31587802FF0F1E700BF30D085877F10190040420F00E8
S31587803000B3FB8487C4FB848738B5264B264A1968E1
S3158780301044F21003CB584C6A5B0003F006031433E3
S315878030205343224AA3FB02239D08FFF789FBC0F3FC
S31587803030083060280BD11C4B14F0400F18BF1D46F3
S3158780304004F03F012846013143F070E938BDFFF728
S3158780305077FBC0F308306228EDD0FFF771FBC0F3AA
S3158780306008306928E7D0FFF76BFBC0F308306828FC
S31587803070E1D0FFF765FBC0F308306428DBD0FFF724
S315878030805FFBC0F308306728D5D0FFF759FBC0F3BD
S3158780309008306528CFD0FFF753FBC0F308306B28FD
S315878030A0CED1C8E730D0858700366E01ABAAAAAA6B
S315878030B0022837B50C461E4D2FD0FFF741FBC0F34C
S315878030C00830642807D0FFF73BFBC0F308306528B4
S315878030D001D0FFF735FB2B6803F58242106844F2EF
S315878030E030029A58520002F00202E100122400252B
S315878030F002F114030F4A5A43A2FB042304FB0533C8
S31587803100CDE900233F238B40184020FA01F168469A
S315878031103DF030FF009803B030BD44F2F0022B6853
S31587803120985844F210029A58520002F00602DCE759
S3158780313030D0858700366E0170B5244B06461B686E
S31587803140DC695D6AFFF7FCFAC0F30830642803D12F
S31587803150012E0DD9002070BDFFF7F2FAC0F3083033
S315878031606528F5D0FFF7ECFAC0F308306B28EFD0E7
S31587803170FFF7E6FAC0F30830672808D1032EE9D02F
S31587803180022E08D1C5F3C24504F480240DE0022EB1
S31587803190F8D0032E12D0012E19BFC5F3C22504F4A9
S315878031A08034C5F3024504F4003464B100210120DC
S315878031B0FFF77EFF691C43F0BAE8CCE7C5F38255F3
S315878031C004F40024F1E70221F1E700BF30D0858738
S315878031D0054B1A68136F18B143F4405313677047CA
S315878031E023F44053FAE700BF30D08587064B1A68A9
S315878031F0D2F8803020B143F00303C2F8803070471D
S3158780320023F00303F9E700BF30D0858738B50446B6
S31587803210FFF796FAC0F308306528104D08D14FF42A
S3158780322040522B6868331968ACB10A431A6038BD37
S31587803230FFF786FAC0F308306B28F0D0FFF780FA5D
S315878032402B68C0F3083064280BBF30224FF4406266
S3158780325074336C33E7E721EA0202E7E730D0858764
S31587803260032938B5044602D96FF0150038BD0ED0CC
S3158780327003231F4A4900126806318B40116F18B1A4
S31587803280194311670020F1E721EA0301F9E7FFF780
S3158780329057FAC0F308306728E6D0FFF751FAC0F3AC
S315878032A008306228124D08D14FF040712B688033E1
S315878032B01A68CCB10A431A60E4E7FFF741FAC0F38C
S315878032C008306428F0D0FFF73BFAC0F308306528CA
S315878032D0EAD0FFF735FAC0F308306B28E4D02B683D
S315878032E04FF440716C33E3E722EA0102E3E700BFDC
S315878032F030D0858710B51F4B1B685A6912F00074CA
S315878033001AD0C2F3C2649A6912F4405FC2F301315C
S3158780331007D00329184808BF0020611C43F006E8B8
S3158780332010BD44F210029858400000F0060000F164
S31587803330140311485843F0E79869C0F381400228FF
S315878033400ED003280FD0012806D044F23002985831
S31587803350400000F00200EAE70221FFF7A9FEDCE7DA
S3158780336021460120F9E702210120FFF7A1FE4008C7
S31587803370D3E700BF30D0858700366E0110B50B4BFB
S315878033801B685B695A06C3F302440BD51B0647BF86
S315878033900121022002210120FFF78AFE611C42F06B
S315878033A0C6EF10BDFFF7A6FFF8E700BF30D0858749
S315878033B038B504460D46FFF7C3F9C0F3083062284F
S315878033C02FD1FFF7BDF9C0F3083067280DD1794B28
S315878033D0A34200F0E880784B9C4200F0E7807748EC
S315878033E00EF06BFF6FF0150038BDFFF7A9F9C0F3B4
S315878033F008306028EBD0FFF7A3F9C0F3083064283C
S315878034000BD0FFF79DF9C0F30830652805D0FFF705
S3158780341097F9C0F308306B2801D1694BD8E7694B98
S31587803420D6E7FFF78DF9C0F3083064281FD1FFF7F9
S3158780343087F9C0F30830672833D0FFF781F9C0F35F
S31587803440083060282DD0FFF77BF9C0F308306428D1
S315878034500BD0FFF775F9C0F30830652805D0FFF7DD
S315878034606FF9C0F308306B2853D1554B1AE0FFF7B5
S3158780347067F9C0F308306528D9D0FFF761F9C0F3BB
S3158780348008306B28D3D0FFF75BF9C0F308306728FD
S31587803490CDD0FFF755F9C0F3083060283BD00020A0
S315878034A0A2E7444BA3429AD14FF440624FF46060BF
S315878034B0454B1968496FBFF35F8F21EA0201BFF3D6
S315878034C05F8F1C686167216FBFF35F8F21F04051E3
S315878034D0BFF35F8F1C682167002DE0D0A16BBFF398
S315878034E05F8F21EA0001BFF35F8F18688163416F21
S315878034F0BFF35F8F0A43BFF35F8F19684A670A6F87
S31587803500BFF35F8F42F04052BFF35F8F1B681A67A6
S31587803510C5E72C4BC6E7FFF713F9C0F30830672852
S3158780352025D1244BA3427FF45AAF274A13685B6F12
S31587803530BFF35F8F23F47073BFF35F8F11684B6719
S31587803540002DACD0CB6BBFF35F8F23F4404343F41E
S315878035508043BFF35F8F1168CB634B6FBFF35F8FFA
S3158780356043F47073BFF35F8F1268536797E7FFF7EC
S31587803570E7F8C0F308306028D3D0FFF7E1F8C0F3C7
S31587803580083064280BD0FFF7DBF8C0F3083065284E
S3158780359005D0FFF7D5F8C0F308306B2801D1084BE3
S315878035A0C0E7084BBEE74FF44C627FE74FF47072F3
S315878035B007207DE700800F02004022026BFB84870D
S315878035C000801C020000220230D085872DE9F04DCD
S315878035D007460D46FFF7B4F8C0F3083062283DD119
S315878035E0FFF7AEF8C0F30830602857D1FFF7A8F801
S315878035F0C0F30830622806D1964B1B689B6BBFF356
S315878036005F8F5B0748D1944BB3EB851F74D24FF09E
S3158780361001080124AE46264621460020DFF84CA2C3
S315878036200122AEF51E23A3F5507303F51E2C534551
S315878036300CF5507C05D808B1844502D214460E46CF
S3158780364060460132092A7344EFD101310929AE4494
S31587803650E6D1002865D1294680485EE0FFF770F875
S31587803660C0F308306428BBD0FFF76AF8C0F3083008
S315878036706528B5D0FFF764F8C0F308306B28AFD0DC
S31587803680FFF75EF8C0F308306028A9D0FFF758F8AF
S31587803690C0F308306728A3D0BDE8F08DFFF750F8D0
S315878036A0C0F3083067280BD16D4BBB429ED1694BDF
S315878036B01B689B6BBFF35F8F13F4606F96D0EBE7C6
S315878036C0FFF73EF8C0F308306028EDD0FFF738F86B
S315878036D0C0F30830642801D1624BE6E7FFF730F8FC
S315878036E0C0F308306528F7D0FFF72AF8C0F308308B
S315878036F06B28F1D05C4BD8E75C4BB3EBC51F07D300
S31587803700B3EB052F07D24FF0040808FB05F580E752
S315878037104FF00208F9E729465548BDE8F04D3FF056
S3158780372066BB544B45F6C051A0FB03AB42F0BEEE59
S31587803730514A504B4A43A2FB03234FEA532AFEF74B
S31587803740FFFFC0F3083067284FEA5B252DD1444BAE
S31587803750BB4258D1514642462846FFF7F3FB01467E
S31587803760002899D13846FFF723FEFEF7E9FFC0F395
S3158780377008306028374B06F1FF3104F1FF3430D0AB
S315878037801A68966B26F47C3646EA013646F4803686
S315878037909663936923F0607343EAC4549461384689
S315878037A0BDE8F04D0121FFF703BEFEF7C9FFC0F3E1
S315878037B008306028CBD0FEF7C3FFC0F30830642873
S315878037C001D1284BC4E7FEF7BBFFC0F308306528D5
S315878037D0F7D0FEF7B5FFC0F308306B28F1D0224BC0
S315878037E0B6E71B6824059E6B84F4C00426F4FC76B2
S315878037F046EAC10646F080069E63DA6922F4E002CD
S315878038001443DC61CBE7FEF79BFFC0F30830622861
S315878038107FF442AF514642462846FFF793FB0146DF
S3158780382000287FF439AF3846FFF7C2FD094B721EF1
S315878038301968013C8B6B23F4FC7646EAC20646F010
S3158780384080068E63CB6923F4E00343EA0454CC6114
S31587803850A5E700BF30D085873FE30900D62F8587C8
S3158780386000800F0200801C020000220240E30900CC
S31587803870BC2F8587F119760540420F0010B1012844
S315878038801AD070471A490B685A6F22F440425A6792
S31587803890DB69BFF35F8F23F0E05323F4607343F0D4
S315878038A0806343F48073BFF35F8F0A68D361536FF6
S315878038B043F44043536770470D490A68936F23F0F3
S315878038C0405323F440639367D36ABFF35F8F23F0B4
S315878038D0FF6323F4F02343F4B023BFF35F8F0A6833
S315878038E0D362936F43F0405343F440639367704743
S315878038F030D08587032970B506460C4602D96FF086
S31587803900150070BD274BD3F8E050BFF35F8F98B90A
S3158780391025F003012143CB0401D4002932DB21F42E
S315878039208051BFF35F8F1F4B1F4AC3F8E010013A60
S3158780393022D16FF06D00E4E70128E0D1FEF700FF22
S31587803940C0F30830622804D125F00C0141EA84014E
S31587803950E1E7FEF7F5FEC0F308306428F4D0FEF77A
S31587803960EFFEC0F308306528EED0FEF7E9FEC0F398
S3158780397008306B28E8D0C2E7D3F8E000BFF35F8FC3
S315878039800028D4DA56B941F4005121F48031BFF347
S315878039905F8F044B0020C3F8E010B2E741F48011B3
S315878039A0F3E700BF00800C02A1860100FFF72CBBDE
S315878039B00F4B1A69BFF35F8F002A18DBBFF35F8FC0
S315878039C04FF480525A61BFF35F8F8022C3F8782184
S315878039D01A69BFF35F8F002AFADABFF35F8F4FF4D6
S315878039E080329A61BFF35F8F4FF400525A61704776
S315878039F000800C0201462DE9F041102800F2A8814B
S31587803A00DFE810F01100230027002B002F006C00C1
S31587803A107000B800BC00DD0097019C019E01A00163
S31587803A202700A6012F00C84BC8481B68196903F56C
S31587803A3080431B6801F0070103F07F0358430131F8
S31587803A40400842F074ECBDE8F081BDE8F041FFF7AD
S31587803A5051BCBDE8F041FEF715BBBDE8F041FFF7E5
S31587803A6063BAB94B1B68DC69FEF76AFEC0F3083018
S31587803A70672803D162062BD5B448E4E7FEF760FE54
S31587803A80C0F308306028F5D0FEF75AFEC0F30830B9
S31587803A906228EFD0FEF754FEC0F308306928E9D054
S31587803AA0FEF74EFEC0F308306828E3D0FEF748FE5F
S31587803AB0C0F308306428DDD0FEF742FEC0F30830B5
S31587803AC06528D7D0FEF73CFEC0F308306B28D1D067
S31587803AD0FFF72AFA04F03F010131B2E7BDE8F041EA
S31587803AE0FFF792BA984D2B689E6BFEF729FEC0F337
S31587803AF00830C6F3C544692804F1010404D17303E9
S31587803B002CD5214691489CE7FEF71AFEC0F30830EC
S31587803B106828F4D0FEF714FEC0F308306028EED00C
S31587803B20FEF70EFEC0F308306228E8D0FEF708FE5F
S31587803B30C0F308306428E2D0FEF702FEC0F308306F
S31587803B406728DCD0FEF7FCFDC0F308306528D6D021
S31587803B50FEF7F6FDC0F308306B28D0D044F2100309
S31587803B602A687A48D358E1005B0003F0060314334A
S31587803B70584366E7BDE8F041FFF700BC724B1B6888
S31587803B80DC69C4F341710229C4F3C25413D0032973
S31587803B9010D0012903D0FFF7F1FB611C51E744F26E
S31587803BA010029858400000F0060000F11403674819
S31587803BB05843F2E700210120FFF77AFAEDE7624F53
S31587803BC03B68D3F818805E69FEF7BAFDC0F3083084
S31587803BD0622818D116F08064C6F3C20545D0FEF7F1
S31587803BE0AFFDC0F30833602B584806F0070408F406
S31587803BF080122BD1AABB44F210033A68D3585B0054
S31587803C0003F006032BE0FEF79BFDC0F3083064289C
S31587803C10E0D0FEF795FDC0F308306528DAD0FEF749
S31587803C208FFDC0F308306B28D4D0FEF789FDC0F3AB
S31587803C3008306028CED0FEF783FDC0F3083067282A
S31587803C40C8D0FFF757FBC6F3C24145E7002AD2D0D3
S31587803C5044F230033A68D3585B0003F00203143387
S31587803C605843691C42F062EB97E7C8F341500228B4
S31587803C7012D0032813D001280AD044F230033A6839
S31587803C80D058400000F0020000F114032F48E7E780
S31587803C900221FFF70DFAE4E721460120F9E7FEF7CF
S31587803CA04FFDC0F30830602805D102210120FFF738
S31587803CB0FFF94008D5E744F270113A68535851584E
S31587803CC09B0D03F00203C1F3C0310B43012B2CD02C
S31587803CD0032B14BF0127042744F27003D65816F4A2
S31587803CE000501ED016F4803021D102F58141D1F85B
S31587803CF000C044F290015158C6F3C142032A06F0A8
S31587803D007F060ED04FF00108C2F10202604608FA9C
S31587803D1002F842F00CEB06440C484146704342F069
S31587803D2006EB394642F002EB9BE70227D4E7074842
S31587803D30F7E70020BDE8F041FFF7FEB90120F9E7F4
S31587803D400220F7E70320F5E730D0858700366E01B6
S31587803D5002483FF04CF8002075E600BF362F8587EE
S31587803D600320FFF747BE000070B5594E594D33681B
S31587803D70594C03F58043186800F07F0068434008F4
S31587803D80A0FB04015548890C3FF031F844F2300393
S31587803D903268D058400000F0020014306843A0FB98
S31587803DA004014F48890C3FF022F844F210033268A9
S31587803DB0D058400000F0060014306843A0FB040109
S31587803DC04848890C3FF013F844F2E0033268D358A9
S31587803DD003F00300C3F340030344434803FB000017
S31587803DE0A0FB04014148890C3FF001F840483EF02A
S31587803DF0FEFF0020FFF7FEFD3E4CA0FB04013E48F8
S31587803E0089093EF0F4FF0320FFF7F4FDA0FB040148
S31587803E103A4889093EF0EBFF0520FFF7EBFDA0FBCB
S31587803E200401374889093EF0E2FF0220FFF7E2FD69
S31587803E30A0FB0401334889093EF0D9FF0720FFF7A5
S31587803E40D9FDA0FB0401304889093EF0D0FF0920BF
S31587803E50FFF7D0FDA0FB04012C4889093EF0C7FFF8
S31587803E600A20FFF7C7FDA0FB0401294889093EF090
S31587803E70BEFF0B20FFF7BEFDA0FB040125488909FD
S31587803E803EF0B5FF0C20FFF7B5FDA0FB0401224865
S31587803E9089093EF0ACFF0D20FFF7ACFDA0FB04013E
S31587803EA01E4889093EF0A3FF0820FFF7A3FDA0FBE4
S31587803EB004011B4889093EF09AFF0420FFF79AFD83
S31587803EC0A0FB0401174889093EF091FF002070BD49
S31587803ED030D0858700366E0183DE1B43E3E7848790
S31587803EE0F7E784870BE8848740787D011FE8848796
S31587803EF086378587D34D621033E8848747E88487FA
S31587803F005BE884876FE8848783E8848797E88487F4
S31587803F10ABE88487BFE88487D3E88487E7E88487A4
S31587803F20FBE884870FE9848730B5002214240E4BFB
S31587803F3004FB02F1CD58854210D10B449A6802F171
S31587803F40067202F570321268BFF35F8FD9680123D4
S31587803F508B40134214BF0120002030BD01324C2A8A
S31587803F60E6D10020F9E700BFCC7584872DE9F34D2C
S31587803F7005460027244CDFF8A0B0DFF8A080A36829
S31587803F8003F1067303F570331A68BFF35F8F0123D6
S31587803F90E1688B40134224D0D4F804A02846514642
S31587803FA03BF0B0FD061E1CDB58463DF0E1FE013036
S31587803FB000905B464246314628463BF0C5F9E0B1DC
S31587803FC0C31C06D14FF4007128460BF0F8FC0028F5
S31587803FD0EAD03AF0F7FF4246034651460B483EF011
S31587803FE006FF01374C2F04F11404C8D108483EF0E8
S31587803FF0FEFE002002B0BDE8F08D42465146054858
S315878040003EF0F5FEEDE700BFCC758487A4158587DE
S31587804010E4158587CD158587941585879D1585872D
S315878040200C4B984214D009D8A3F5004398420AD0FE
S3158780403003F58043984209D000207047064B984203
S31587804040FAD10C2000E00920FFF76EBF0A20FBE734
S315878040500B20F9E70080190200C01902A0F10670CB
S31587804060A0F58040400A1730FFF75EBF0020704773
S315878040700C4B984214D009D8A3F5004398420AD0AE
S3158780408003F58043984209D000207047064B9842B3
S31587804090FAD1302000E02D20FFF746BF2E20FBE7A0
S315878040A02F20F9E700801A0200801F02064B98426C
S315878040B006D003F55423984204D11420FFF734BFE2
S315878040C01520FBE70020704700400B0270470000F1
S315878040D030B591B0FEF75AFE0446124808F0E6FCE2
S315878040E0E8B111493DF01BFE0546C0B921460F4808
S315878040F008F0AEFB2046FFF7E9FF0D49024608A880
S315878041003EF068FE08A90B4808F084FB0A492246D8
S3158780411068463EF05FFE2946684610F0C7FC11B0B8
S3158780412030BD00BF5AA9848768A98487222A858754
S315878041306CA9848788A9848790A9848710B54C467B
S31587804140FDF7B8FF2064002010BD37B504460068A8
S3158780415050B1C36A43B148F2901300934FF0FF3250
S315878041601F23056BA16BA84763689B690BB12046A4
S315878041709847002003B030BD08B502210248FDF775
S315878041804FFD002008BD00BFA068848710B5164AFA
S31587804190D9F80030154C5A642368152023F40833E0
S315878041A043F400332360FFF7BFFE28B9236823F4DF
S315878041B0882343F48023236001210020FFF79AFB1D
S315878041C030B91520FFF7B0FE38B10120FFF71EF80A
S315878041D00020FFF753FB002010BD01210846FFF71B
S315878041E089FB0028F1D0F3E70001008004400E02A6
S315878041F008B53348FEF786FA3249334808F00AFB12
S315878042003249334808F006FB3249334808F002FBC7
S31587804210FEF796FAC0F308306B2807D12F492C48CA
S3158780422008F0F8FA2E492F4808F0F4FAFEF788FA4C
S31587804230C0F30830672826D12B480121FFF7B8F8C5
S3158780424001212A48FDF7ECFC294989201DF0ADFB21
S31587804250002189201DF0F8FB4FF4FA703DF0D8FED7
S31587804260012189201DF0F0FB224908201DF09DFB46
S31587804270012108201DF0E8FBFFF72AFF1E48FEF77D
S31587804280E3FD002008BDFEF75BFAC0F3083060289F
S31587804290D2D0FEF755FAC0F3083064280BD0FEF7E4
S315878042A04FFAC0F30830652805D0FEF749FAC0F380
S315878042B008306B2801D11148BFE71148BDE700BF99
S315878042C04C6B8487F81A858709A984872CA9848764
S315878042D00DA9848718A984871EA9848728A9848796
S315878042E030A984873AA9848700800F026868848783
S315878042F046A9848750A9848700C00B0200801C0248
S315878043000000220208B5FEF71BFAC0F308306B2837
S315878043100CBF034803480DF0D0FF002008BD00BFBF
S3158780432089B08487A2B08487034608461146184792
S31587804330012A70B516461C4618DD102254F8040FDC
S3158780434000213EF0DDFD054601460A483EF04FFDD9
S315878043502246711E2846FFF7E7FF041E0146064858
S3158780436018BF01243EF043FD204670BD4FF0FF34D1
S31587804370FAE700BFE5D884870DD984872DE9F0458C
S3158780438002F1FF38B8F1000F06460F4615461C46E0
S3158780439087B003F1040A30DD1022586805A93EF0FC
S315878043A0AFFD059B1A7842B33A2A26D0232A24D092
S315878043B009221749606810F010FCAA1E04F10803C9
S315878043C060B1C4681349012C0DD0E0070CD4D1F8AD
S315878043D08C00844208DC10483EF009FD4FF0FF30A0
S315878043E007B0BDE8F08507240020019102900094EC
S315878043F0394630460AF032FAF2E701230293054BB3
S315878044004246019340F21F7300935346F0E700BFFD
S31587804410C0D3858750EC8687BFC8848710B50C46FE
S31587804420034808F043FB2146BDE8104010F03EBBA9
S315878044303B04858738B5044601461D483EF0D7FC40
S3158780444020460FF0A3F80128054606D0032827D0F3
S3158780445018480DF032FF012509E017480DF02DFF2A
S315878044602268164B9A4204D015480DF026FF2846B7
S3158780447038BD20460EF0C0FE08B91248F5E72046BB
S315878044800EF0F0FF10480DF018FF20460EF0C9FE9B
S3158780449008B90E48E9E70E480DF00FFF0025E6E7D5
S315878044A00C480DF00AFF20460FF0AAFDF6E700BFFD
S315878044B0D61F858783208587F71F85872705195682
S315878044C00E208587232085873B208587562085876D
S315878044D0672085876B208587012A70B505DCBDE8CF
S315878044E070400B4B1868FFF7A5BF00251E1D03EB91
S315878044F082041022002156F8040B3EF001FDFFF757
S3158780450099FF002818BF0125A642F2D1284670BD9B
S31587804510C4AB868773B505460D480E4608F0C6FA3E
S3158780452010B9002002B070BD0A493DF0F8FB0446F9
S315878045300028F6D1084BCDE90060196807483EF018
S3158780454056FC6B46012221462846FFF717FFE9E787
S3158780455035AF848768A98487C4AB86873FAF8487CE
S3158780456037B50546064C0748CDE90023241A0B46FE
S315878045700549A4102A46614310F08EFB03B030BDEF
S3158780458014D086875CC58687B76DDBB600B5B3B032
S31587804590C822694600203CF0AFFB3EF028FC0548E0
S315878045A00DF08BFE04480DF088FE002033B05DF851
S315878045B004FB00BF37F08487AAF084872DE9F34D03
S315878045C0044610460D4616461F4616F04BFB022CB0
S315878045D080463ED004DC012C04D84FF0FF3442E07D
S315878045E0032C69D0664968683DF099FB04460028A4
S315878045F040F0948001461022A8683EF081FC2146CF
S3158780460083461022E8683EF07BFC2146824610224C
S3158780461028693EF075FC0546534641463A680090C0
S3158780462058483EF0E4FB2B46524639683046CDF8EB
S3158780463000B016F0AEFC544A544B0446854218BFE8
S315878046401A46014652483EF0D2FB2C1B18BF0124DE
S3158780465009E003224F4968683DF06CFB044630B910
S31587804660304616F079FB204602B0BDE8F08D0322EE
S31587804670494968683DF05EFB60B93046396816F00F
S3158780468089FB08B90024EEE7414644483EF0AFFBF4
S315878046900124E8E70422424968683DF04BFB0446DB
S315878046A000289AD1304616F025FB0028EAD0414665
S315878046B03C483EF09CFBD6E73749224668683DF002
S315878046C039FB014680B90A22A8683EF019FC014663
S315878046D00546304616F072FB04460028D8D13D60E1
S315878046E031483EF084FBBEE72D49042268683DF059
S315878046F021FB014600287FF470AF0A22A8683EF026
S31587804700FFFB04460146304616F013FB0028B9D0D6
S315878047102246414625483EF06AFBB9E724496868C0
S315878047203DF0FDFA044600287FF457AF01461022F4
S31587804730A8683EF0E5FB214683461022E8683EF06E
S31587804740DFFB21468246102228693EF0D9FB054643
S31587804750534641463A68009016483EF048FB2B46BA
S31587804760524639683046CDF800B016F03FFC064A87
S31587804770064B0446854218BF1A4601460E4862E7AD
S31587804780C9758587A6A5848725A5848728A58487CF
S31587804790D6A584872EA58487DB1A858732A58487C5
S315878047A0508A85874CA584876EA5848789A58487C3
S315878047B01A628587EBA584871CA6848738B50446C5
S315878047C01A4828F015FA054620460EF0DFFE01289E
S315878047D029D12268164B9A4204D016480DF06DFD72
S315878047E0012038BD20460EF007FD08B91248F5E747
S315878047F02DB120460EF015FD08B91048EEE7A37F48
S31587804800062B01D00E48E9E7236C04F1400019BADC
S315878048100BB90C48E2E702680430002AFBD1BDE871
S31587804820384010F04AB90848D8E700BF26228587DE
S31587804830270519562D2285873F2285874F2285878B
S315878048405D2285876D2285877B228587012A10B59C
S315878048500FDD1022002158683EF052FB0446214620
S3158780486005483EF0C4FA2046BDE810400021FFF790
S31587804870A5BF024CF3E700BF98EA84870000808053
S315878048800B460822014601483EF0B1BAC23B85876E
S3158780489010B5D9F800402548216CFFF7F1FF616C88
S315878048A02348FFF7EDFFE36C5BB100212148FFF7D3
S315878048B0E7FFA16C2048FFF7E3FFE16C1F48FFF70E
S315878048C0DFFFD9F808101E483EF091FA1D48D9F8BF
S315878048D0D010FFF7D5FF1C48D9F83C10FFF7D0FFDB
S315878048E01A48D9F85010FFF7CBFF1948D9F84810DE
S315878048F0FFF7C6FF1748D9F84C10FFF7C1FF164850
S31587804900D9F81C10FFF7BCFF4FF40052D9F8A810CE
S3158780491012483EF06CFAD9F8682022B1D9F8681027
S315878049200F48FFF7ADFF002010BD00BF9FC6848765
S31587804930ABC68487B7C68487C1C68487CAC6848739
S31587804940D2C68487E8C68487F1C68487FBC6848770
S3158780495005C784870CC7848716C7848720C78487BB
S315878049603EC78487012A2DE9F04105460E4611DD2B
S31587804970571E0A490222586803F1040810F02DF958
S3158780498040B1C46843463A4631462846A446BDE880
S31587804990F04160474FF0FF30BDE8F0810CD58587C1
S315878049A0032A38B51C4616D10022586811463EF030
S315878049B0A7FA002205461146A0683EF0A1FA04466A
S315878049C00146284616F004FD2A46214603483EF0CE
S315878049D00EFA002038BD4FF0FF30FBE79BA7848710
S315878049E000B589B003A816F021FD079B03A901931B
S315878049F0069B044800930EC93EF0F9F9002009B05A
S31587804A005DF804FBCBA784872DE9F04105460E46E2
S31587804A10571E0A490222586803F1040810F0DDF808
S31587804A2040B1C46843463A4631462846A446BDE8DF
S31587804A30F04160474FF0FF30BDE8F08144D58587E8
S31587804A40012A10B504D0022A10D04FF0FF3010BD4E
S31587804A50214B1C682378422B03D163784D2B00D159
S31587804A605CB91E483EF0C3F90120F0E71022002189
S31587804A7058683EF045FA0446ECE7E37DA27DE17C03
S31587804A8042EA0322237E607E42EA0342A37C42EA8D
S31587804A90006243EA0123217D114843EA0143617D10
S31587804AA043EA01613EF0A3F9237F617F0D4843EA9C
S31587804AB001213EF09CF9E17FA37F0B4843EA0123DE
S31587804AC094F8201043EA014394F8211043EA016160
S31587804AD03EF08DF90020BAE7C4AB868747C78487BF
S31587804AE078C7848791C78487A5C78487F7B503786E
S31587804AF00446422B0E46174603D143784D2B00D169
S31587804B0028B90F483EF073F9012003B0F0BD1CF039
S31587804B1015F990B147F6FF75AE420CD07B1B5D4287
S31587804B205D413B463246214600951BF04FFD003856
S31587804B3018BF0120E9E70125F3E76FF01200F6E752
S31587804B4047C7848773B515460026684601A91C46DC
S31587804B50CDE900660CF0D0FE022D0CD0042D11D045
S31587804B60012D34D11B4B1D682846DDE90012FFF7DE
S31587804B70BDFF02B070BD1022314660683EF0C0F935
S31587804B800546F1E73146102260683EF0B9F9124949
S31587804B900546A0683DF0C3F858B947F6FF7300937A
S31587804BA00D49E0683DF0BBF850B947F6FF7301932E
S31587804BB0DAE70A223146A0683EF0A2F90090EFE74D
S31587804BC00A220021E0683EF09BF90190CCE74FF0FE
S31587804BD0FF30CEE7C4AB868705F484872DE9F3411A
S31587804BE00026154640F6FF7298463346AA18C0F3C4
S31587804BF00B0448EB060120F47F67A41841EB030377
S31587804C0027F00F07240B44EA03523846314601962C
S31587804C1000961B0B35F00EFA30B13A463346CDE90E
S31587804C20005803483EF0E3F802B0BDE8F08100BF44
S31587804C3045F884872DE9F04D002486B0064643489B
S31587804C40CDE9024407F032FF054630F0D7F90122D5
S31587804C50DFF818813E4FD8F83C3001920094D3F81C
S31587804C6098403C493B6804AA3046A0470446C346D9
S31587804C7030F0B0F924B1384C204606B0BDE8F08DC7
S31587804C80049BC3E906448DB34FF0FF31284637F03E
S31587804C90A7FD441C02212046DDF810A00EF02EF8D1
S31587804CA0049BCAF81C00D3F81CA0BAF1000F11D157
S31587804CB02A483EF09CF830F0A1F9D8F83C20534634
S31587804CC0D2F89C4023493A683046A04730F082F92B
S31587804CD0234CD1E7294655464FF0FF3205A8CDF8B4
S31587804CE014A037F0E9FD049A6400946130F086F960
S31587804CF0DBF83C30164AD3F89C403046002312684E
S31587804D001449A047044630F065F9002CB4D130F0B9
S31587804D1075F902A903AA304631F0AEFA044630F017
S31587804D2059F9104824F000413EF061F83CB1039967
S31587804D3029B10D483EF05BF8039835F0D1FB30F00A
S31587804D400DFB28460DF012FD96E700BFE3CD8487DD
S31587804D50FC638887A8678487020000802EC884873B
S31587804D600900008044C8848768C88487C806808786
S31587804D702DE9F0410446D0B04FF49872002104A8FB
S31587804D80FCF7CEF8002C3AD1774E784F00E0013485
S31587804D90336C9C4218D2142303FB04F5716C102262
S31587804DA0384629443DF091F80028F0D1736C2B441E
S31587804DB0597C1A7C42EA0122997CDB7C42EA014251
S31587804DC052EA036340F08F80694807F06FFE58B9CF
S31587804DD0684807F06BFE38B967483EF008F8674C35
S31587804DE0204650B0BDE8F081102200213EF088F839
S31587804DF0044620B962483DF0FAFF624CF0E72046C8
S31587804E0039F058FF074600286FD05F48F3E7029F3F
S31587804E106268214612BA3846FCF7D2F800232D05F8
S31587804E2005F47F0545EA1665360A06F47F463543D7
S31587804E307D60029C1A46214604A80FF083FC0546AE
S31587804E4008B15248D7E720463AF076FC0646AE4206
S31587804E5011DC002120464E4A3AF0F1FC011E19DA10
S31587804E602146424831F0D6FD04460028B8D04948C5
S31587804E703DF0BDFFB4E76A462946204602AB3AF045
S31587804E803CFC28B9DDE90223DDE90001FFF7A6FEB0
S31587804E900135DCE720463AF02EF84FF0FF36054697
S31587804EA00027DFF80081002DDADB29464246204637
S31587804EB002AB3BF03BF90021B94208BFB042CDE94E
S31587804EC000010AD0294620463AF0F4FE28B1DDE96A
S31587804ED00223DDE90001FFF781FE294620463AF065
S31587804EE01DF80546DFE704467AE7D9F80030D9F812
S31587804EF0002040F6FF70D26C0021002A9B6C08BF89
S31587804F004FF0FF33626803F1FE6312BA02F54052AF
S31587804F10801841F10001050B45EA015503EB0533FE
S31587804F20CDE902372A460421012002AB2E0335F0CC
S31587804F3009FA00283FF46BAF31464FF480500EF064
S31587804F4093F82A46CDE902070421012002AB35F082
S31587804F50F9F900283FF45BAF0F483DF048FF0F48CB
S31587804F603DF045FF0E4C3BE7C80680876867848798
S31587804F70CDF58487D6F58487E5F584870E0000800E
S31587804F80FEF58487010000802BF6848785F68487E3
S31587804F90ABF68487BFF6848747F684876FF68487E0
S31587804FA009000080BBF684870023F0B585B002931D
S31587804FB01F4B064618680F4610B11E4B1968F1B904
S31587804FC0002332461846CDE9007333F031F805461B
S31587804FD002A830F0A3FA044630B92A4616490298C1
S31587804FE031F0C6FB044668B1029808B130F0A4FE5A
S31587804FF015B1284635F074FA204605B0F0BD32F0F3
S3158780500097FE05462FF0FAFF03AB0C49019300976D
S3158780501033462A460020096831F0E4FD04462FF09E
S31587805020D9FF002CE0D10398FFF704FE0446DBE71F
S315878050305CE2868760E28687F8668487FC638887F2
S31587805040012A37B514461D4603DC4FF0FF3003B07F
S3158780505030BD35F009FD014630B120F000411F484B
S315878050603DF0C5FE0120F2E7022C03D01022A86806
S315878050703DF046FFFFF77CFE194B04469842E4D005
S315878050800028EFD1174968683CF049FE70B901A8B6
S315878050902FF014FF18B114483DF0A9FEE2E7019876
S315878050A0FFF7C8FD003818BF0120D0E70F486D6825
S315878050B007F0FCFC20B1214610223DF021FF0446F3
S315878050C01022002128463DF01BFF10B92B78302B04
S315878050D0BBD12146FFF768FFE4E700BFC1C7848756
S315878050E002000080F4C78487FCC7848725C88487A5
S315878050F02DE9F04506460F469046154D154C85B0E9
S31587805100286835F0EDF90DF10C0A206835F0E8F955
S31587805110304642463946CDF800A002AB33F008F8D0
S31587805120264680B9029B039C2B603CB1524620461B
S3158780513002A932F0CDFF204635F0D2F9039B336042
S3158780514005B0BDE8F08500232B602360F8E700BFB4
S315878051505CE2868760E286872DE9F04503F1040A5B
S315878051601F460123204C87B0551ECDE90034029314
S315878051702A46534680460E4609F070FB65B91B4B17
S315878051801B682366206E05AA04A9FCF751FA50B1DD
S31587805190012007B0BDE8F0851022002178683DF0B0
S315878051A0AFFE2066EEE7216EDDE904321048D21A1B
S315878051B03CF093F852462946304609F011FB002881
S315878051C0E6D109F043FB052384F85E3001230293F9
S315878051D04FF4E2632A46009331465346404601940C
S315878051E009F03CFBD5E700BF50EC8687C4AB868742
S315878051F0E0EC868710B50B4904463CF090FD68B194
S31587805200204609493CF08BFD50B1204607493CF042
S3158780521086FD003818BF0120404210BD0220FCE77A
S315878052200120FAE7633785874543858701C7848762
S31587805230012A10B519D0022A03D04FF0FF342046B1
S3158780524010BD5868FFF7D6FF0128044606D0022886
S3158780525008D00028F1D1FCF72EFCF0E7FCF722FC7A
S315878052600024ECE7FBF750FDFAE7FCF728FC044AB5
S315878052700449002818BF114603483DF0B8FDEFE77B
S315878052806CA78587CFDC8487D3DC8487012A10B592
S3158780529019D0022A03D04FF0FF34204610BD5868B4
S315878052A0FFF7A8FF0128044606D0022808D00028E1
S315878052B0F1D1FCF740FCF0E7FCF706FC0024ECE72D
S315878052C0FBF72FFDFAE7FCF739FC044A04490028E7
S315878052D018BF114603483DF08AFDEFE76CA785879F
S315878052E0CFDC8487A6CE84872DE9F34D0FF0A4FA89
S315878052F005461C480CF0E1FFDFF878802C68DFF8DC
S3158780530078A0AC4203D1002002B0BDE8F08D54F876
S31587805310442C154E12F0010F14BF49232E2312F009
S31587805320020F14BF4F212E21404600910F4FA4F1C3
S315878053303C013DF05CFDA4F1440B06F10C0356F865
S31587805340042B5A4504D1504639683DF050FD084BA9
S31587805350B34207F10407F2D10A200CF0BFFF246815
S31587805360CFE700BF6ECE8487F0458787C8AB8687B1
S31587805370FC4587878ACE848716B2848700207047C4
S31587805380012AF8B50E4614461D4615DD042258684F
S315878053900B490FF022FCA21E05F10803044658B17B
S315878053A04168914208DB3146C768B847014620463F
S315878053B0BDE8F8400FF078BF4FF0FF30F8BD00BFEB
S315878053C010D9858708B513F05FFE002008BD08B51C
S315878053D013F00AFE002008BD08B513F0EDFD002006
S315878053E008BD00002DE9F04D4FF0010A16461F468D
S315878053F05546DFF86C80B54208DBBAF1000F02D0DC
S315878054000A200CF06BFF0020BDE8F08D012D57F840
S3158780541025B002D020200CF061FF414658463CF0EB
S3158780542061FD0446B8B14FF0000A584684F800A05B
S315878054300CF043FFA3465C230BF8023B4146584654
S315878054403CF050FD04460028EFD158460CF035FFD6
S31587805450A2460135CFE758460CF02FFFF9E700BF04
S3158780546016CF84872DE9F04D03790446022B38D1F0
S3158780547000264FF03808076A0744238F08FB06758E
S315878054809E4209DB638AA069152B03D1236BDB07D1
S3158780549000D50068BDE8F08DD5E9082352EA030177
S315878054A0D5F818A004D0A96850462144FBF788FD13
S315878054B0D5E908BCD5E90A239C4508BF934506D01C
S315878054C00021A2EB0B020BEB0A00FBF729FDA96AE9
S315878054D02AF03F003F3121F03F01FCF773FA01360E
S315878054E0CBE70026C7690744A38D07EB4615B342EA
S315878054F001DCA069CEE72A69D5F80C8022B1696874
